:100000000C9434000C9449000C9449000C94490061
:100010000C9449000C9449000C9449000C9449003C
:100020000C9449000C9449000C9449000C9449002C
:100030000C9449000C9449000C9449000C9449001C
:100040000C9449000C9449000C9449000C9449000C
:100050000C9449005203BB0324048D04F6045F058D
:10006000C80531069A06030711241FBECFE5D8E064
:10007000DEBFCDBF10E0A0E6B0E0E8EAFFE002C0DE
:1000800005900D92AE37B107D9F70E940C010C9480
:10009000D2070C940000683008F0AAC0813081F1CA
:1000A00038F0823009F454C0833009F479C0A2C01A
:1000B0008AB390E0062E02C0959587950A94E2F7E0
:1000C00080FF9AC0442319F0413071F097C02BB3E0
:1000D00081E090E002C0880F991F6A95E2F7809551
:1000E00082238BBB80E008952BB381E090E002C0B7
:1000F000880F991F6A95E2F7822B8BBB80E00895E9
:1001000087B390E0062E02C0959587950A94E2F792
:1001100080FF76C0442319F0413071F073C028B3DA
:1001200081E090E002C0880F991F6A95E2F7809500
:10013000822388BB80E0089528B381E090E002C06C
:10014000880F991F6A95E2F7822B88BB80E008959B
:1001500084B390E0062E02C0959587950A94E2F745
:1001600080FF52C0442319F0413071F04FC025B3D5
:1001700081E090E002C0880F991F6A95E2F78095B0
:10018000822385BB80E0089525B381E090E002C022
:10019000880F991F6A95E2F7822B85BB80E008954E
:1001A00081B390E0062E02C0959587950A94E2F7F8
:1001B00080FF2EC0442319F0413071F02BC022B3D0
:1001C00081E090E002C0880F991F6A95E2F7809560
:1001D000822382BB80E0089522B381E090E002C0D8
:1001E000880F991F6A95E2F7822B82BB80E0089501
:1001F00084E0089583E0089587E0089586E00895F7
:1002000087E0089586E0089587E0089586E00895E0
:1002100087E0089586E008950E94000368E080E08A
:100220000E943F0368E081E00E943F038FE493EC6B
:100230000197F1F700C0000088E590E00E94880770
:100240008FE493EC0197F1F700C00000E7CFFC01C9
:100250002081283008F0C8C13181313009F477C0DD
:1002600038F0323009F4E2C0333009F44EC1BEC177
:10027000FC013281313009F130F03230B9F13330E4
:1002800009F44DC0B5C13AB341E050E0BA0102C033
:10029000660F771F2A95E2F7262F209523232ABB86
:1002A0002BB3FC01008002C0440F551F0A94E2F7F3
:1002B000409542234BBB80E008953AB341E050E0C3
:1002C000BA0102C0660F771F2A95E2F7262F209504
:1002D00023232ABB2BB3FC01008002C0440F551F0F
:1002E0000A94E2F7422B4BBB80E008956AB341E0E9
:1002F00050E0FA0102C0EE0FFF1F2A95E2F79F01BE
:10030000262B2ABB2BB3FC01008002C0440F551FD3
:100310000A94E2F7409542234BBB80E008956AB30C
:1003200041E050E0FA0102C0EE0FFF1F2A95E2F70C
:100330009F01262B2ABB2BB3FC01008002C0440F77
:10034000551F0A94E2F7422B4BBB80E00895FC0155
:100350003281313009F130F03230B9F1333009F403
:100360004DC048C137B341E050E0BA0102C0660F4A
:10037000771F2A95E2F7262F2095232327BB28B342
:10038000FC01008002C0440F551F0A94E2F740951B
:10039000422348BB80E0089537B341E050E0BA0102
:1003A00002C0660F771F2A95E2F7262F2095232398
:1003B00027BB28B3FC01008002C0440F551F0A94DC
:1003C000E2F7422B48BB80E0089567B341E050E07C
:1003D000FA0102C0EE0FFF1F2A95E2F79F01262BBC
:1003E00027BB28B3FC01008002C0440F551F0A94AC
:1003F000E2F74095422348BB80E0089567B341E0AF
:1004000050E0FA0102C0EE0FFF1F2A95E2F79F01AC
:10041000262B27BB28B3FC01008002C0440F551FC8
:100420000A94E2F7422B48BB80E00895FC01328138
:10043000313009F130F03230B9F1333009F44DC0C8
:10044000DBC034B341E050E0BA0102C0660F771F51
:100450002A95E2F7262F2095232324BB25B3FC0100
:10046000008002C0440F551F0A94E2F740954223D2
:1004700045BB80E0089534B341E050E0BA0102C0CA
:10048000660F771F2A95E2F7262F2095232324BB9A
:1004900025B3FC01008002C0440F551F0A94E2F707
:1004A000422B45BB80E0089564B341E050E0FA017F
:1004B00002C0EE0FFF1F2A95E2F79F01262B24BBF7
:1004C00025B3FC01008002C0440F551F0A94E2F7D7
:1004D0004095422345BB80E0089564B341E050E07D
:1004E000FA0102C0EE0FFF1F2A95E2F79F01262BAB
:1004F00024BB25B3FC01008002C0440F551F0A94A1
:10050000E2F7422B45BB80E00895FC013281313097
:1005100009F130F03230B9F1333009F44DC06EC01A
:1005200031B341E050E0BA0102C0660F771F2A954F
:10053000E2F7262F2095232321BB22B3FC01008064
:1005400002C0440F551F0A94E2F74095422342BB74
:1005500080E0089531B341E050E0BA0102C0660F77
:10056000771F2A95E2F7262F2095232321BB22B35C
:10057000FC01008002C0440F551F0A94E2F7422B91
:1005800042BB80E0089561B341E050E0FA0102C04F
:10059000EE0FFF1F2A95E2F79F01262B21BB22B306
:1005A000FC01008002C0440F551F0A94E2F74095F9
:1005B000422342BB80E0089561B341E050E0FA017C
:1005C00002C0EE0FFF1F2A95E2F79F01262B21BBE9
:1005D00022B3FC01008002C0440F551F0A94E2F7C9
:1005E000422B42BB80E0089582E0089583E00895A5
:1005F00081E0089581E0089581E0089581E0089503
:100600000F931F93CF93DF9300D01F92CDB7DEB728
:1006100000E080E02AC0E12FF0E0EE0FFF1F2FE0A6
:10062000029FC0011124E80FF91FE05AFF4F2081FB
:100630002A8321812983FC01E05AFF4F8685882384
:1006400019F0813021F005C082E08B8302C082E086
:100650008B83CE0101960E942701811105C01F5F87
:1006600001C010E01730B8F20F5F0230D0F30F90E6
:100670000F900F90DF91CF911F910F910895CF931D
:10068000DF93833008F028C46A3008F027C4462F6F
:1006900050E04A30510508F023C4FA01E65DFF4FEF
:1006A0000C94BD0790E02FE0289FF001299FF00DEA
:1006B0001124E05AFF4F2685222319F0213071F1D1
:1006C00011C42FE0289FE001299FD00D1124C05AAA
:1006D000DF4F40E0698188810E944B0040E06B81E0
:1006E0008A810E944B0040E06D818C810E944B000A
:1006F00040E06F818E810E944B0040E069858885D3
:100700000E944B0040E06B858A850E944B0041E0CF
:100710006D858C850E944B0080E0F7C32FE0289FF9
:10072000E001299FD00D1124C05ADF4F41E06981BB
:1007300088810E944B0041E06B818A810E944B00BE
:1007400041E06D818C810E944B0041E06F818E8180
:100750000E944B0041E0698588850E944B0041E082
:100760006B858A850E944B0040E06D858C850E94D8
:100770004B0080E0CAC390E02FE0289FF001299F42
:10078000F00D1124E05AFF4F2685222319F0213065
:1007900071F1AAC32FE0289FE001299FD00D1124F9
:1007A000C05ADF4F41E0698188810E944B0040E0E0
:1007B0006B818A810E944B0040E06D818C810E9498
:1007C0004B0041E06F818E810E944B0041E06985C2
:1007D00088850E944B0041E06B858A850E944B0012
:1007E00041E06D858C850E944B0080E08EC32FE038
:1007F000289FE001299FD00D1124C05ADF4F40E00F
:10080000698188810E944B0041E06B818A810E944E
:100810004B0041E06D818C810E944B0040E06F8174
:100820008E810E944B0040E0698588850E944B00C4
:1008300040E06B858A850E944B0040E06D858C8589
:100840000E944B0080E061C390E02FE0289FF00100
:10085000299FF00D1124E05AFF4F2685222319F01D
:10086000213071F143C32FE0289FE001299FD00D73
:100870001124C05ADF4F40E0698188810E944B00FB
:1008800040E06B818A810E944B0041E06D818C8148
:100890000E944B0040E06F818E810E944B0040E03F
:1008A000698588850E944B0041E06B858A850E949E
:1008B0004B0040E06D858C850E944B0080E025C395
:1008C0002FE0289FE001299FD00D1124C05ADF4F4F
:1008D00041E0698188810E944B0041E06B818A81FF
:1008E0000E944B0040E06D818C810E944B0041E0F2
:1008F0006F818E810E944B0041E0698588850E944E
:100900004B0040E06B858A850E944B0041E06D857D
:100910008C850E944B0080E0F8C290E02FE0289F79
:10092000F001299FF00D1124E05AFF4F2685222364
:1009300019F0213071F1DCC22FE0289FE001299FDE
:10094000D00D1124C05ADF4F40E0698188810E9498
:100950004B0040E06B818A810E944B0040E06D813A
:100960008C810E944B0040E06F818E810E944B0081
:1009700041E0698588850E944B0041E06B858A854E
:100980000E944B0040E06D858C850E944B0080E00A
:10099000BCC22FE0289FE001299FD00D1124C05A2E
:1009A000DF4F41E0698188810E944B0041E06B810B
:1009B0008A810E944B0041E06D818C810E944B0036
:1009C00041E06F818E810E944B0040E069858885FF
:1009D0000E944B0040E06B858A850E944B0041E0FD
:1009E0006D858C850E944B0080E08FC290E02FE0E7
:1009F000289FF001299FF00D1124E05AFF4F268512
:100A0000222319F0213071F175C22FE0289FE001F7
:100A1000299FD00D1124C05ADF4F41E069818881A0
:100A20000E944B0040E06B818A810E944B0040E0B5
:100A30006D818C810E944B0041E06F818E810E940C
:100A40004B0041E0698588850E944B0040E06B8542
:100A50008A850E944B0040E06D858C850E944B008A
:100A600080E053C22FE0289FE001299FD00D112480
:100A7000C05ADF4F40E0698188810E944B0041E00D
:100A80006B818A810E944B0041E06D818C810E94C4
:100A90004B0040E06F818E810E944B0040E06985F1
:100AA00088850E944B0041E06B858A850E944B003F
:100AB00041E06D858C850E944B0080E026C290E06D
:100AC0002FE0289FF001299FF00D1124E05AFF4FDD
:100AD0002685222319F0213071F10EC22FE0289FC4
:100AE000E001299FD00D1124C05ADF4F40E06981F9
:100AF00088810E944B0041E06B818A810E944B00FB
:100B000040E06D818C810E944B0040E06F818E81BE
:100B10000E944B0041E0698588850E944B0040E0BF
:100B20006B858A850E944B0040E06D858C850E9414
:100B30004B0080E0EAC12FE0289FE001299FD00D03
:100B40001124C05ADF4F41E0698188810E944B0027
:100B500040E06B818A810E944B0041E06D818C8175
:100B60000E944B0041E06F818E810E944B0040E06B
:100B7000698588850E944B0041E06B858A850E94CB
:100B80004B0041E06D858C850E944B0080E0BDC12B
:100B900090E02FE0289FF001299FF00D1124E05AEA
:100BA000FF4F2685222319F0213071F1A7C12FE0D4
:100BB000289FE001299FD00D1124C05ADF4F40E04B
:100BC000698188810E944B0041E06B818A810E948B
:100BD0004B0040E06D818C810E944B0040E06F81B2
:100BE0008E810E944B0040E0698588850E944B0001
:100BF00040E06B858A850E944B0040E06D858C85C6
:100C00000E944B0080E081C12FE0289FE001299FD6
:100C1000D00D1124C05ADF4F41E0698188810E94C4
:100C20004B0040E06B818A810E944B0041E06D8166
:100C30008C810E944B0041E06F818E810E944B00AD
:100C400041E0698588850E944B0041E06B858A857B
:100C50000E944B0041E06D858C850E944B0080E036
:100C600054C190E02FE0289FF001299FF00D11243E
:100C7000E05AFF4F2685222319F0213071F140C13F
:100C80002FE0289FE001299FD00D1124C05ADF4F8B
:100C900040E0698188810E944B0040E06B818A813D
:100CA0000E944B0040E06D818C810E944B0041E02E
:100CB0006F818E810E944B0041E0698588850E948A
:100CC0004B0041E06B858A850E944B0041E06D85B9
:100CD0008C850E944B0080E018C12FE0289FE00126
:100CE000299FD00D1124C05ADF4F41E069818881CE
:100CF0000E944B0041E06B818A810E944B0041E0E1
:100D00006D818C810E944B0040E06F818E810E943A
:100D10004B0040E0698588850E944B0040E06B8570
:100D20008A850E944B0040E06D858C850E944B00B7
:100D300080E0EBC090E02FE0289FF001299FF00DAC
:100D40001124E05AFF4F2685222319F0213071F13A
:100D5000D9C02FE0289FE001299FD00D1124C05A4F
:100D6000DF4F40E0698188810E944B0040E06B8149
:100D70008A810E944B0040E06D818C810E944B0073
:100D800040E06F818E810E944B0040E0698588853C
:100D90000E944B0040E06B858A850E944B0040E03A
:100DA0006D858C850E944B0080E0AFC02FE0289FAE
:100DB000E001299FD00D1124C05ADF4F41E0698125
:100DC00088810E944B0041E06B818A810E944B0028
:100DD00041E06D818C810E944B0041E06F818E81EA
:100DE0000E944B0041E0698588850E944B0041E0EC
:100DF0006B858A850E944B0041E06D858C850E9441
:100E00004B0080E082C090E02FE0289FF001299FF6
:100E1000F00D1124E05AFF4F2685222319F02130CE
:100E200071F172C02FE0289FE001299FD00D11249D
:100E3000C05ADF4F40E0698188810E944B0040E04A
:100E40006B818A810E944B0040E06D818C810E9401
:100E50004B0040E06F818E810E944B0041E069852C
:100E600088850E944B0040E06B858A850E944B007C
:100E700040E06D858C850E944B0080E046C02FE0ED
:100E8000289FE001299FD00D1124C05ADF4F41E077
:100E9000698188810E944B0041E06B818A810E94B8
:100EA0004B0041E06D818C810E944B0041E06F81DD
:100EB0008E810E944B0040E0698588850E944B002E
:100EC00041E06B858A850E944B0041E06D858C85F1
:100ED0000E944B0080E019C081E017C081E015C07E
:100EE00080E013C080E011C080E00FC080E00DC042
:100EF00080E00BC080E009C080E007C080E005C052
:100F000080E003C080E001C080E0DF91CF910895D0
:100F10001F93CF93DF93EC0111E09E01ADECBCEC8D
:100F20000E94C307AC01569547955695479556952F
:100F30004795CA01880F991F440F551F440F551F2D
:100F4000440F551F480F591FCE01841B950BAC0150
:100F50000E94C307EC01D695C795D695C795D6953F
:100F6000C795642F812F0E943F03811102C0115049
:100F7000D4CFDF91CF911F910895EE0FFF1F059001
:100F8000F491E02D0994A29FB001B39FC001A39FEB
:100F9000700D811D1124911DB29F700D811D1124B2
:080FA000911D0895F894FFCFA4
:100FA8000000000100020003000400050006010221
:0E0FB80000020102020203030103040306010A
:00000001FF
