:100000000C942A000C9467000C9467000C94670011
:100010000C9467000C9467000C9467000C946700C4
:100020000C9467000C9467000C9467000C946700B4
:100030000C9467000C9467000C9467000C946700A4
:100040000C9467000C9467000C9467000C94670094
:100050000C94670011241FBECFE5D8E0DEBFCDBFF2
:0C0060000E9436000C945C00F894FFCF66
:10006C008AB383608ABB1BBA8BB381608BBB2FE3D3
:10007C008DE093E0215080409040E1F700C00000FB
:10008C008BB382608BBB8BB38E7F8BBB2FE38DE0EE
:10009C0093E0215080409040E1F700C000008BB30A
:0C00AC008D7F8BBB8BB381608BBBDECFE4
:1000B800EC010E946C000E946B00CE010E946D0052
:0600C800CE010E94690058
:0400CE000C9400008E
:0400D2000E94340054
:0200D60008958B
:0200D800089589
:0200DA00089587
:00000001FF
