:100000000C942A000C943F000C943F000C943F0089
:100010000C943F000C943F000C943F000C943F0064
:100020000C943F000C943F000C943F000C943F0054
:100030000C943F000C943F000C943F000C943F0044
:100040000C943F000C943F000C943F000C943F0034
:100050000C943F0011241FBECFE5D8E0DEBFCDBF1A
:1000600010E0A0E6B0E0E4EAF5E002C005900D92F1
:10007000AC36B107D9F70E94C9000C94D0020C9499
:1000800000000F931F93CF93DF9300D01F92CDB743
:10009000DEB710E000E05EC0812F90E0FC01EE0FC3
:1000A000FF1FEE0FFF1FE05AFF4F2281223008F0A2
:1000B0004DC0FC01EE0FFF1FEE0FFF1FE05AFF4F78
:1000C0003081398331813A83213069F4FC01EE0FAC
:1000D000FF1FEE0FFF1FE05AFF4F3381311103C0A6
:1000E00082E08B832CC0213069F4FC01EE0FFF1FEE
:1000F000EE0FFF1FE05AFF4F3381313019F483E0D8
:100100008B831DC021110DC0FC01EE0FFF1FEE0FF0
:10011000FF1FE05AFF4F3381313019F482E08B83A7
:100120000EC021110CC0880F991F880F991FFC0168
:10013000E05AFF4F8381811102C083E08B83CE019F
:1001400001960E94F700811103C003C003E001C0C3
:1001500001E01F5F133008F49FCF802F0F900F90A6
:100160000F90DF91CF911F910F910895833068F424
:10017000623068F4E82FF0E0EE0FFF1FEE0FFF1F74
:10018000E05AFF4F638380E0089584E0089585E09E
:1001900008950E9441002FEB87E299E021508040B2
:1001A0009040E1F700C0000060E080E00E94B600EF
:1001B00060E081E00E94B6002FE38DE093E02150E3
:1001C00080409040E1F700C0000060E080E00E94C5
:1001D000B60061E081E00E94B6002FE38DE093E07D
:1001E000215080409040E1F700C00000DDCFFC01CD
:1001F0002081283008F0C8C13181313009F477C03E
:1002000038F0323009F4E2C0333009F44EC1BEC1D7
:10021000FC013281313009F130F03230B9F1333044
:1002200009F44DC0B5C13AB341E050E0BA0102C093
:10023000660F771F2A95E2F7262F209523232ABBE6
:100240002BB3FC01008002C0440F551F0A94E2F753
:10025000409542234BBB80E008953AB341E050E023
:10026000BA0102C0660F771F2A95E2F7262F209564
:1002700023232ABB2BB3FC01008002C0440F551F6F
:100280000A94E2F7422B4BBB80E008956AB341E049
:1002900050E0FA0102C0EE0FFF1F2A95E2F79F011E
:1002A000262B2ABB2BB3FC01008002C0440F551F34
:1002B0000A94E2F7409542234BBB80E008956AB36D
:1002C00041E050E0FA0102C0EE0FFF1F2A95E2F76D
:1002D0009F01262B2ABB2BB3FC01008002C0440FD8
:1002E000551F0A94E2F7422B4BBB80E00895FC01B6
:1002F0003281313009F130F03230B9F1333009F464
:100300004DC048C137B341E050E0BA0102C0660FAA
:10031000771F2A95E2F7262F2095232327BB28B3A2
:10032000FC01008002C0440F551F0A94E2F740957B
:10033000422348BB80E0089537B341E050E0BA0162
:1003400002C0660F771F2A95E2F7262F20952323F8
:1003500027BB28B3FC01008002C0440F551F0A943C
:10036000E2F7422B48BB80E0089567B341E050E0DC
:10037000FA0102C0EE0FFF1F2A95E2F79F01262B1C
:1003800027BB28B3FC01008002C0440F551F0A940C
:10039000E2F74095422348BB80E0089567B341E00F
:1003A00050E0FA0102C0EE0FFF1F2A95E2F79F010D
:1003B000262B27BB28B3FC01008002C0440F551F29
:1003C0000A94E2F7422B48BB80E00895FC01328199
:1003D000313009F130F03230B9F1333009F44DC029
:1003E000DBC034B341E050E0BA0102C0660F771FB2
:1003F0002A95E2F7262F2095232324BB25B3FC0161
:10040000008002C0440F551F0A94E2F74095422332
:1004100045BB80E0089534B341E050E0BA0102C02A
:10042000660F771F2A95E2F7262F2095232324BBFA
:1004300025B3FC01008002C0440F551F0A94E2F767
:10044000422B45BB80E0089564B341E050E0FA01DF
:1004500002C0EE0FFF1F2A95E2F79F01262B24BB57
:1004600025B3FC01008002C0440F551F0A94E2F737
:100470004095422345BB80E0089564B341E050E0DD
:10048000FA0102C0EE0FFF1F2A95E2F79F01262B0B
:1004900024BB25B3FC01008002C0440F551F0A9401
:1004A000E2F7422B45BB80E00895FC0132813130F8
:1004B00009F130F03230B9F1333009F44DC06EC07B
:1004C00031B341E050E0BA0102C0660F771F2A95B0
:1004D000E2F7262F2095232321BB22B3FC010080C5
:1004E00002C0440F551F0A94E2F74095422342BBD5
:1004F00080E0089531B341E050E0BA0102C0660FD8
:10050000771F2A95E2F7262F2095232321BB22B3BC
:10051000FC01008002C0440F551F0A94E2F7422BF1
:1005200042BB80E0089561B341E050E0FA0102C0AF
:10053000EE0FFF1F2A95E2F79F01262B21BB22B366
:10054000FC01008002C0440F551F0A94E2F7409559
:10055000422342BB80E0089561B341E050E0FA01DC
:1005600002C0EE0FFF1F2A95E2F79F01262B21BB49
:1005700022B3FC01008002C0440F551F0A94E2F729
:10058000422B42BB80E0089582E0089583E0089505
:1005900081E0089581E0089581E0089581E0089563
:0405A000F894FFCFFD
:0C05A40000000000010001010200010144
:00000001FF
