:100000000C942A000C943F000C943F000C943F0089
:100010000C943F000C943F000C943F000C943F0064
:100020000C943F000C943F000C943F000C943F0054
:100030000C943F000C943F000C943F000C943F0044
:100040000C943F000C943F000C943F000C943F0034
:100050000C943F0011241FBECFE5D8E0DEBFCDBF1A
:1000600010E0A0E6B0E0E4E4F6E002C005900D92F6
:10007000AE37B107D9F70E94CD020C9420030C943F
:100080000000CF93DF93CDB7DEB760970FB6F8943B
:10009000DEBF0FBECDBF98E0E0E6F0E0DE011196D6
:1000A00001900D929A95E1F798E0E8E6F0E0DE0124
:1000B000199601900D929A95E1F7843008F06AC084
:1000C000683008F069C0413029F120F0423009F46D
:1000D00041C064C0E82FF0E0EE0FFF1F81E090E028
:1000E0008C0F9D1FE80FF91FA081B1812C9181E039
:1000F00090E002C0880F991F6A95E2F7922F982B23
:100100009C930084F185E02D9081809589238083E4
:1001100080E045C0E82FF0E0EE0FFF1F81E090E0A7
:100120008C0F9D1FE80FF91FA081B1812C9181E0F8
:1001300090E002C0880F991F6A95E2F78095922F90
:1001400098239C930084F185E02D908189238083FE
:1001500080E025C0E82FF0E0EE0FFF1F81E090E087
:100160008C0F9D1FE80FF91FA081B1812C9181E0B8
:1001700090E002C0880F991F6A95E2F7982F90953A
:1001800092239C930084F185E02D9081892B8083BC
:1001900080E005C083E003C084E001C085E0609694
:1001A0000FB6F894DEBF0FBECDBFDF91CF9108959B
:1001B000CF93DF93CDB7DEB760970FB6F894DEBF6D
:1001C0000FBECDBF98E0E0E6F0E0DE0111960190B1
:1001D0000D929A95E1F798E0E8E6F0E0DE011996D5
:1001E00001900D929A95E1F78430D8F56130A9F02D
:1001F00018F0623011F137C0E82FF0E0EE0FFF1F6A
:1002000081E090E08C0F9D1FE80FF91F0190F081B5
:10021000E02D8FEF808380E027C0E82FF0E0EE0F25
:10022000FF1F81E090E08C0F9D1FE80FF91F0190E8
:10023000F081E02D108280E017C0E82FF0E0EE0F93
:10024000FF1F81E090E08C0F9D1FE80FF91FA08138
:10025000B1811C920084F185E02D8FEF808380E0D6
:1002600003C083E001C085E060960FB6F894DEBF5E
:100270000FBECDBFDF91CF910895683008F0AAC0BE
:10028000813081F138F0823009F454C0833009F4B0
:1002900079C0A2C08AB390E0062E02C095958795DA
:1002A0000A94E2F780FF9AC0442319F0413071F0BC
:1002B00097C02BB381E090E002C0880F991F6A9528
:1002C000E2F7809582238BBB80E008952BB381E019
:1002D00090E002C0880F991F6A95E2F7822B8BBBD2
:1002E00080E0089587B390E0062E02C0959587952B
:1002F0000A94E2F780FF76C0442319F0413071F090
:1003000073C028B381E090E002C0880F991F6A95FE
:10031000E2F78095822388BB80E0089528B381E0CE
:1003200090E002C0880F991F6A95E2F7822B88BB84
:1003300080E0089584B390E0062E02C095958795DD
:100340000A94E2F780FF52C0442319F0413071F063
:100350004FC025B381E090E002C0880F991F6A95D5
:10036000E2F78095822385BB80E0089525B381E084
:1003700090E002C0880F991F6A95E2F7822B85BB37
:1003800080E0089581B390E0062E02C09595879590
:100390000A94E2F780FF2EC0442319F0413071F037
:1003A0002BC022B381E090E002C0880F991F6A95AC
:1003B000E2F78095822382BB80E0089522B381E03A
:1003C00090E002C0880F991F6A95E2F7822B82BBEA
:1003D00080E0089584E0089583E0089587E008951B
:1003E00086E0089587E0089586E0089587E00895FF
:1003F00086E0089587E0089586E00895813061F0F1
:1004000028F0823079F0833099F018C08AB38F3F9A
:10041000B9F46BBB80E0089587B38F3F99F468BB54
:1004200080E0089584B38F3F79F465BB80E0089540
:1004300081B38F3F59F462BB80E0089583E0089553
:1004400087E0089587E0089587E0089587E008959C
:1004500041E062E081E00E943D018FEC97E001976E
:10046000F1F700C0000040E062E081E00E943D0141
:100470008FEC97E00197F1F700C000000895682F16
:1004800080E00E94FE0141E060E081E00E943D01C9
:1004900040E061E081E00E943D010E9428028FEC73
:1004A00097E00197F1F700C000000895682F80E001
:1004B0000E94FE0140E060E081E00E943D0140E0DA
:1004C00061E081E00E943D010E9428028FEC97E0EC
:1004D0000197F1F700C0000008950F931F93CF9389
:1004E0008C01C0E003C00E943F02CF5FF801EC0F17
:1004F000F11D80818111F7CFCF911F910F91089548
:1005000081E00E9456028FE19EE40197F1F700C05E
:10051000000008952FE788E391E02150804090404B
:10052000E1F700C0000060E080E00E94D80040E0F9
:1005300060E081E00E94410040E061E081E00E94D3
:10054000410040E062E081E00E94410082E00E94C0
:1005500056028FEC97E00197F1F700C0000088E3A6
:100560000E9456028FEC97E00197F1F700C000005F
:100570008CE00E9456028FEC97E00197F1F700C0E3
:1005800000000E94800286E00E9456028FEC97E0F5
:100590000197F1F700C000000895CF93DF93CDB726
:1005A000DEB72D970FB6F894DEBF0FBECDBF0E9409
:1005B0008A0286E0E0E7F0E0DE01119601900D92FC
:1005C0008A95E1F7FE01379687E0DF011D928A9553
:1005D000E9F7CE0101960E946D0210E00DC08CE19A
:1005E0000E945602BFE322E48FE0B15020408040D9
:1005F000E1F700C000001F5F103188F310E00BC06E
:1006000088E190E00E946D02A3EDB0E31197F1F74D
:1006100000C000001F5F1D3198F310E00EC08CE198
:1006200090E00E946D02BFE322E48FE0B1502040D1
:100630008040E1F700C000001F5F1D3080F3CDCF88
:04064000F894FFCF5C
:100644003A003700340031003B00380035003200F6
:0E06540041686D6564000000000000000000B9
:00000001FF
