:100000000C942A000C943F000C943F000C943F0089
:100010000C943F000C943F000C943F000C943F0064
:100020000C943F000C943F000C943F000C943F0054
:100030000C943F000C943F000C943F000C943F0044
:100040000C943F000C943F000C943F000C943F0034
:100050000C943F0011241FBECFE5D8E0DEBFCDBF1A
:1000600010E0A0E6B0E0E6E5F3E002C005900D92F6
:10007000A036B107D9F70E9478010C94A9010C941D
:100080000000683008F0AAC0813081F138F0823079
:1000900009F454C0833009F479C0A2C08AB390E057
:1000A000062E02C0959587950A94E2F780FF9AC0C4
:1000B000442319F0413071F097C02BB381E090E0F8
:1000C00002C0880F991F6A95E2F7809582238BBB47
:1000D00080E008952BB381E090E002C0880F991F63
:1000E0006A95E2F7822B8BBB80E0089587B390E09E
:1000F000062E02C0959587950A94E2F780FF76C098
:10010000442319F0413071F073C028B381E090E0CE
:1001100002C0880F991F6A95E2F78095822388BBF9
:1001200080E0089528B381E090E002C0880F991F15
:100130006A95E2F7822B88BB80E0089584B390E053
:10014000062E02C0959587950A94E2F780FF52C06B
:10015000442319F0413071F04FC025B381E090E0A5
:1001600002C0880F991F6A95E2F78095822385BBAC
:1001700080E0089525B381E090E002C0880F991FC8
:100180006A95E2F7822B85BB80E0089581B390E009
:10019000062E02C0959587950A94E2F780FF2EC03F
:1001A000442319F0413071F02BC022B381E090E07C
:1001B00002C0880F991F6A95E2F78095822382BB5F
:1001C00080E0089522B381E090E002C0880F991F7B
:1001D0006A95E2F7822B82BB80E0089583E0089560
:1001E00082E0089586E0089585E0089586E0089508
:1001F00085E0089586E0089585E0089586E00895F5
:1002000085E00895683008F065C04115510509F48E
:1002100063C08130E9F030F0823081F1833009F43D
:1002200043C05CC08AB390E0062E02C095958795C6
:100230000A94E2F780FD54C089B390E002C095951E
:1002400087956A95E2F78170FA01808380E00895CE
:1002500087B390E0062E02C0959587950A94E2F741
:1002600080FD40C086B390E002C0959587956A9561
:10027000E2F78170FA01808380E0089584B390E012
:10028000062E02C0959587950A94E2F780FD2CC052
:1002900083B390E002C0959587956A95E2F78170E7
:1002A000FA01808380E0089581B390E0062E02C0B9
:1002B000959587950A94E2F780FD18C080B390E089
:1002C00002C0959587956A95E2F78170FA0180835F
:1002D00080E0089583E0089581E0089582E0089524
:1002E00086E0089586E0089586E0089586E0089502
:1002F000CF93DF931F92CDB7DEB781E089830E9451
:100300009C0111E001C011E0AE014F5F5F4F60E062
:1003100080E00E940201113049F48981811106C0F8
:1003200041E062E00E94410010E0EECF1111ECCFFD
:100330008981813049F7E7CF84E08ABB81E08BBBBC
:1003400017BA18BA8FEF84BB15BA11BA12BA80E087
:060350000895F894FFCFB0
:00000001FF
