:100000000C942A000C949F000C949F000C949F0069
:100010000C949F000C949F000C949F000C949F00E4
:100020000C949F000C949F000C949F000C949F00D4
:100030000C949F000C949F000C949F000C949F00C4
:100040000C949F000C949F000C949F000C949F00B4
:100050000C949F0011241FBECFE5D8E0DEBFCDBFBA
:0C0060000E9436000C948C00F894FFCF36
:10006C008AB381608ABB8AB382608ABB8AB384609C
:10007C008ABB8AB388608ABBC0E089B365E00E9402
:10008C0097008823D1F3CF5F89B365E00E94970076
:10009C008111FACFC13069F48BB381608BBB8BB308
:1000AC008D7F8BBB8BB38B7F8BBB8BB3877F8BBBDA
:1000BC00E4CFC23069F48BB382608BBB8BB38E7F81
:1000CC008BBB8BB38B7F8BBB8BB3877F8BBBD5CF22
:1000DC00C33069F48BB381608BBB8BB38B7F8BBBD1
:1000EC008BB382608BBB8BB3877F8BBBC6CFC4308B
:1000FC0021F68BB384608BBB8BB381608BBB8BB3D2
:0C010C008D7F8BBB8BB3877F8BBBB7CF85
:10011800EC010E94A4000E94A300CE010E94A50049
:06012800CE010E94A100BF
:10012E0090E002C0959587956A95E2F781700895E3
:04013E000C9400001D
:040142000E943400E3
:0201460008951A
:02014800089518
:02014A00089516
:00000001FF
